{
  "contractName": "Hub",
  "abi": [
    {
      "constant": true,
      "inputs": [],
      "name": "getUsers",
      "outputs": [
        {
          "name": "",
          "type": "address[]"
        }
      ],
      "payable": false,
      "stateMutability": "view",
      "type": "function"
    },
    {
      "constant": true,
      "inputs": [
        {
          "name": "",
          "type": "uint256"
        }
      ],
      "name": "users",
      "outputs": [
        {
          "name": "",
          "type": "address"
        }
      ],
      "payable": false,
      "stateMutability": "view",
      "type": "function"
    },
    {
      "constant": true,
      "inputs": [
        {
          "name": "",
          "type": "uint256"
        }
      ],
      "name": "userAddresses",
      "outputs": [
        {
          "name": "",
          "type": "address"
        }
      ],
      "payable": false,
      "stateMutability": "view",
      "type": "function"
    },
    {
      "constant": true,
      "inputs": [],
      "name": "collect",
      "outputs": [
        {
          "name": "",
          "type": "uint256"
        }
      ],
      "payable": false,
      "stateMutability": "view",
      "type": "function"
    },
    {
      "constant": false,
      "inputs": [
        {
          "name": "id",
          "type": "uint256"
        },
        {
          "name": "user",
          "type": "address"
        }
      ],
      "name": "registerUser",
      "outputs": [],
      "payable": false,
      "stateMutability": "nonpayable",
      "type": "function"
    }
  ],
  "bytecode": "0x6060604052341561000f57600080fd5b6104908061001e6000396000f30060606040526004361061006c576000357c0100000000000000000000000000000000000000000000000000000000900463ffffffff168062ce8e3e14610071578063365b98b2146100db578063502c9bd51461013e578063e5225381146101a1578063e6de5165146101ca575b600080fd5b341561007c57600080fd5b61008461020c565b6040518080602001828103825283818151815260200191508051906020019060200280838360005b838110156100c75780820151818401526020810190506100ac565b505050509050019250505060405180910390f35b34156100e657600080fd5b6100fc60048080359060200190919050506102a0565b604051808273ffffffffffffffffffffffffffffffffffffffff1673ffffffffffffffffffffffffffffffffffffffff16815260200191505060405180910390f35b341561014957600080fd5b61015f60048080359060200190919050506102d3565b604051808273ffffffffffffffffffffffffffffffffffffffff1673ffffffffffffffffffffffffffffffffffffffff16815260200191505060405180910390f35b34156101ac57600080fd5b6101b4610312565b6040518082815260200191505060405180910390f35b34156101d557600080fd5b61020a600480803590602001909190803573ffffffffffffffffffffffffffffffffffffffff16906020019091905050610347565b005b6102146103ff565b600180548060200260200160405190810160405280929190818152602001828054801561029657602002820191906000526020600020905b8160009054906101000a900473ffffffffffffffffffffffffffffffffffffffff1673ffffffffffffffffffffffffffffffffffffffff168152602001906001019080831161024c575b5050505050905090565b60006020528060005260406000206000915054906101000a900473ffffffffffffffffffffffffffffffffffffffff1681565b6001818154811015156102e257fe5b90600052602060002090016000915054906101000a900473ffffffffffffffffffffffffffffffffffffffff1681565b6000806000809150600090505b60018054905081101561033f57600a82019150808060010191505061031f565b819250505090565b3360008084815260200190815260200160002060006101000a81548173ffffffffffffffffffffffffffffffffffffffff021916908373ffffffffffffffffffffffffffffffffffffffff160217905550600180548060010182816103ac9190610413565b9160005260206000209001600083909190916101000a81548173ffffffffffffffffffffffffffffffffffffffff021916908373ffffffffffffffffffffffffffffffffffffffff160217905550505050565b602060405190810160405280600081525090565b81548183558181151161043a57818360005260206000209182019101610439919061043f565b5b505050565b61046191905b8082111561045d576000816000905550600101610445565b5090565b905600a165627a7a7230582023227b6ddcc6dc766898d8a8eeb35cfe0221c9bc5da7afdddad1c6918c00ad860029",
  "source": "pragma solidity ^0.4.17;\r\n\r\ncontract Hub {\r\n    //address[8] public users;\r\n    mapping (uint=>address) public users;\r\n    address[] public userAddresses;\r\n    \r\n\r\n    \r\n    function collect() public view returns(uint) {\r\n        uint amountCollected = 0;\r\n        \r\n        for (uint i = 0; i < userAddresses.length; i++) {\r\n            amountCollected+=10;\r\n        }\r\n        \r\n        return amountCollected;\r\n    }\r\n\r\n  \r\n    function getUsers() public view returns(address[]) {\r\n        return userAddresses;\r\n    }\r\n\r\n    function registerUser(uint id, address user) public {\r\n        users[id] = msg.sender;\r\n        userAddresses.push(user);\r\n    }\r\n}",
  "sourcePath": "C:\\Code\\IBISAPoC\\contracts\\Hub.sol",
  "compiler": {
    "name": "solc",
    "version": "0.4.18+commit.9cf6e910.Emscripten.clang"
  },
  "schemaVersion": "1.0.1",
  "updatedAt": "2018-01-26T12:44:39.231Z"
}