{
  "contractName": "User",
  "abi": [
    {
      "constant": false,
      "inputs": [],
      "name": "payPremium",
      "outputs": [
        {
          "name": "",
          "type": "uint256"
        }
      ],
      "payable": false,
      "stateMutability": "nonpayable",
      "type": "function"
    },
    {
      "constant": true,
      "inputs": [
        {
          "name": "",
          "type": "uint256"
        }
      ],
      "name": "policies",
      "outputs": [
        {
          "name": "",
          "type": "address"
        }
      ],
      "payable": false,
      "stateMutability": "view",
      "type": "function"
    },
    {
      "constant": true,
      "inputs": [],
      "name": "userID",
      "outputs": [
        {
          "name": "",
          "type": "uint256"
        }
      ],
      "payable": false,
      "stateMutability": "view",
      "type": "function"
    }
  ],
  "bytecode": "0x6060604052341561000f57600080fd5b6101908061001e6000396000f300606060405260043610610057576000357c0100000000000000000000000000000000000000000000000000000000900463ffffffff16806329c08ba21461005c578063d3e8948314610085578063e302418a146100e8575b600080fd5b341561006757600080fd5b61006f610111565b6040518082815260200191505060405180910390f35b341561009057600080fd5b6100a6600480803590602001909190505061011f565b604051808273ffffffffffffffffffffffffffffffffffffffff1673ffffffffffffffffffffffffffffffffffffffff16815260200191505060405180910390f35b34156100f357600080fd5b6100fb61015e565b6040518082815260200191505060405180910390f35b600080600a90508091505090565b60028181548110151561012e57fe5b90600052602060002090016000915054906101000a900473ffffffffffffffffffffffffffffffffffffffff1681565b600054815600a165627a7a723058201d2dc98ff52bab6f738d32e3b301ee395e2bd0a806db4088450468a98428e44e0029",
  "source": "pragma solidity ^0.4.17;\r\n\r\ncontract User {\r\n    uint public userID;\r\n    uint public payPremium;\r\n\r\n    address[] public policies;\r\n\r\n\r\n    // Adopting a pet\r\n    function payPremium() public returns (uint) {\r\n    \r\n    uint  premiumPayed = 10;\r\n    \r\n    return premiumPayed;\r\n  }\r\n}",
  "sourcePath": "C:\\Code\\IBISAPoC\\contracts\\User.sol",
  "compiler": {
    "name": "solc",
    "version": "0.4.18+commit.9cf6e910.Emscripten.clang"
  },
  "schemaVersion": "1.0.1",
  "updatedAt": "2018-01-25T12:00:57.047Z"
}