{
  "contractName": "User",
  "abi": [
    {
      "constant": true,
      "inputs": [],
      "name": "inscope",
      "outputs": [
        {
          "name": "",
          "type": "bool"
        }
      ],
      "payable": false,
      "stateMutability": "view",
      "type": "function"
    },
    {
      "constant": false,
      "inputs": [],
      "name": "payPremium",
      "outputs": [
        {
          "name": "",
          "type": "uint256"
        }
      ],
      "payable": false,
      "stateMutability": "nonpayable",
      "type": "function"
    },
    {
      "constant": true,
      "inputs": [],
      "name": "region",
      "outputs": [
        {
          "name": "",
          "type": "uint256"
        }
      ],
      "payable": false,
      "stateMutability": "view",
      "type": "function"
    },
    {
      "constant": true,
      "inputs": [],
      "name": "userName",
      "outputs": [
        {
          "name": "",
          "type": "string"
        }
      ],
      "payable": false,
      "stateMutability": "view",
      "type": "function"
    },
    {
      "constant": true,
      "inputs": [],
      "name": "userID",
      "outputs": [
        {
          "name": "",
          "type": "uint256"
        }
      ],
      "payable": false,
      "stateMutability": "view",
      "type": "function"
    },
    {
      "inputs": [
        {
          "name": "_userID",
          "type": "uint256"
        },
        {
          "name": "_userName",
          "type": "string"
        },
        {
          "name": "_region",
          "type": "uint256"
        },
        {
          "name": "_inscope",
          "type": "bool"
        }
      ],
      "payable": false,
      "stateMutability": "nonpayable",
      "type": "constructor"
    }
  ],
  "bytecode": "0x6060604052341561000f57600080fd5b6040516103e43803806103e483398101604052808051906020019091908051820191906020018051906020019091908051906020019091905050836000819055508260019080519060200190610066929190610091565b508160028190555080600360006101000a81548160ff02191690831515021790555050505050610136565b828054600181600116156101000203166002900490600052602060002090601f016020900481019282601f106100d257805160ff1916838001178555610100565b82800160010185558215610100579182015b828111156100ff5782518255916020019190600101906100e4565b5b50905061010d9190610111565b5090565b61013391905b8082111561012f576000816000905550600101610117565b5090565b90565b61029f806101456000396000f30060606040526004361061006d576000357c0100000000000000000000000000000000000000000000000000000000900463ffffffff1680630eb52d2f1461007257806329c08ba21461009f5780635062d68d146100c857806370019b35146100f1578063e302418a1461017f575b600080fd5b341561007d57600080fd5b6100856101a8565b604051808215151515815260200191505060405180910390f35b34156100aa57600080fd5b6100b26101bb565b6040518082815260200191505060405180910390f35b34156100d357600080fd5b6100db6101c9565b6040518082815260200191505060405180910390f35b34156100fc57600080fd5b6101046101cf565b6040518080602001828103825283818151815260200191508051906020019080838360005b83811015610144578082015181840152602081019050610129565b50505050905090810190601f1680156101715780820380516001836020036101000a031916815260200191505b509250505060405180910390f35b341561018a57600080fd5b61019261026d565b6040518082815260200191505060405180910390f35b600360009054906101000a900460ff1681565b600080600a90508091505090565b60025481565b60018054600181600116156101000203166002900480601f0160208091040260200160405190810160405280929190818152602001828054600181600116156101000203166002900480156102655780601f1061023a57610100808354040283529160200191610265565b820191906000526020600020905b81548152906001019060200180831161024857829003601f168201915b505050505081565b600054815600a165627a7a72305820545f154a5c8ac830a9341d5a532c24f66683c807ae8d926b361bb7c66b5d8ec50029",
  "source": "pragma solidity ^0.4.17;\r\n\r\ncontract User {\r\n    uint public userID;\r\n    string public userName;\r\n    uint public region;\r\n    bool public inscope;\r\n    address[] wallets;\r\n\r\n    function User(uint _userID, string _userName, uint _region, bool _inscope) public {\r\n      userID = _userID;\r\n      userName = _userName;\r\n      region = _region;\r\n      inscope = _inscope;\r\n    }\r\n\r\n    function payPremium() public returns (uint) {   \r\n    uint  premiumPayed = 10;\r\n    return premiumPayed;\r\n  }\r\n}",
  "sourcePath": "C:\\Code\\IBISAPoC\\contracts\\User.sol",
  "compiler": {
    "name": "solc",
    "version": "0.4.18+commit.9cf6e910.Emscripten.clang"
  },
  "schemaVersion": "1.0.1",
  "updatedAt": "2018-01-25T16:17:37.426Z"
}