{
  "contractName": "Wallet",
  "abi": [
    {
      "constant": false,
      "inputs": [
        {
          "name": "policyName",
          "type": "string"
        },
        {
          "name": "riskCovered",
          "type": "string"
        },
        {
          "name": "policyPremium",
          "type": "uint256"
        },
        {
          "name": "indemnityAmount",
          "type": "uint256"
        },
        {
          "name": "currentAmount",
          "type": "uint256"
        }
      ],
      "name": "AddPolicy",
      "outputs": [
        {
          "name": "",
          "type": "uint256"
        }
      ],
      "payable": false,
      "stateMutability": "nonpayable",
      "type": "function"
    },
    {
      "constant": false,
      "inputs": [],
      "name": "Indemnify",
      "outputs": [
        {
          "name": "",
          "type": "uint256"
        }
      ],
      "payable": false,
      "stateMutability": "nonpayable",
      "type": "function"
    },
    {
      "constant": true,
      "inputs": [],
      "name": "walletID",
      "outputs": [
        {
          "name": "",
          "type": "uint256"
        }
      ],
      "payable": false,
      "stateMutability": "view",
      "type": "function"
    },
    {
      "constant": true,
      "inputs": [
        {
          "name": "",
          "type": "uint256"
        }
      ],
      "name": "policies",
      "outputs": [
        {
          "name": "policyName",
          "type": "string"
        },
        {
          "name": "riskCovered",
          "type": "string"
        },
        {
          "name": "policyPremium",
          "type": "uint256"
        },
        {
          "name": "indemnityAmount",
          "type": "uint256"
        },
        {
          "name": "currentAmount",
          "type": "uint256"
        }
      ],
      "payable": false,
      "stateMutability": "view",
      "type": "function"
    },
    {
      "constant": true,
      "inputs": [],
      "name": "noPolicies",
      "outputs": [
        {
          "name": "",
          "type": "uint256"
        }
      ],
      "payable": false,
      "stateMutability": "view",
      "type": "function"
    }
  ],
  "bytecode": "0x6060604052341561000f57600080fd5b6105ed8061001e6000396000f30060606040526004361061006d576000357c0100000000000000000000000000000000000000000000000000000000900463ffffffff168063026e76da14610072578063a71c949314610141578063be25f5cd1461016a578063d3e8948314610193578063f0d39d4c146102ea575b600080fd5b341561007d57600080fd5b61012b600480803590602001908201803590602001908080601f0160208091040260200160405190810160405280939291908181526020018383808284378201915050505050509190803590602001908201803590602001908080601f01602080910402602001604051908101604052809392919081815260200183838082843782019150505050505091908035906020019091908035906020019091908035906020019091905050610313565b6040518082815260200191505060405180910390f35b341561014c57600080fd5b6101546103ca565b6040518082815260200191505060405180910390f35b341561017557600080fd5b61017d6103fc565b6040518082815260200191505060405180910390f35b341561019e57600080fd5b6101b46004808035906020019091905050610402565b6040518080602001806020018681526020018581526020018481526020018381038352888181546001816001161561010002031660029004815260200191508054600181600116156101000203166002900480156102535780601f1061022857610100808354040283529160200191610253565b820191906000526020600020905b81548152906001019060200180831161023657829003601f168201915b50508381038252878181546001816001161561010002031660029004815260200191508054600181600116156101000203166002900480156102d65780601f106102ab576101008083540402835291602001916102d6565b820191906000526020600020905b8154815290600101906020018083116102b957829003601f168201915b505097505050505050505060405180910390f35b34156102f557600080fd5b6102fd610445565b6040518082815260200191505060405180910390f35b600060028054806001018281610329919061044b565b9160005260206000209060050201600060a0604051908101604052808a8152602001898152602001888152602001878152602001868152509091909150600082015181600001908051906020019061038292919061047d565b50602082015181600101908051906020019061039f92919061047d565b5060408201518160020155606082015181600301556080820151816004015550505095945050505050565b6000806000809150600090505b6002805490508110156103f757600a8201915080806001019150506103d7565b505090565b60005481565b60028181548110151561041157fe5b9060005260206000209060050201600091509050806000019080600101908060020154908060030154908060040154905085565b60015481565b8154818355818115116104785760050281600502836000526020600020918201910161047791906104fd565b5b505050565b828054600181600116156101000203166002900490600052602060002090601f016020900481019282601f106104be57805160ff19168380011785556104ec565b828001600101855582156104ec579182015b828111156104eb5782518255916020019190600101906104d0565b5b5090506104f99190610554565b5090565b61055191905b8082111561054d576000808201600061051c9190610579565b60018201600061052c9190610579565b60028201600090556003820160009055600482016000905550600501610503565b5090565b90565b61057691905b8082111561057257600081600090555060010161055a565b5090565b90565b50805460018160011615610100020316600290046000825580601f1061059f57506105be565b601f0160209004906000526020600020908101906105bd9190610554565b5b505600a165627a7a723058205823cf949ad90da218375a609b6f6f46d0e22f274f956550ecb6f7d5cf97eee50029",
  "source": "pragma solidity ^0.4.17;\r\n\r\ncontract Wallet {\r\n    uint public walletID;\r\n    uint public noPolicies;\r\n\r\n     struct Policy { // Struct\r\n        string policyName;\r\n        string riskCovered;\r\n        uint policyPremium;\r\n        uint indemnityAmount;\r\n        uint currentAmount;\r\n    }\r\n\r\n    Policy[] public policies;\r\n\r\n    function Indemnify() public returns(uint) {\r\n        uint indemnifiedTotal = 0;\r\n        for (uint i = 0; i < policies.length; i++) {\r\n            indemnifiedTotal+=10; \r\n            }      \r\n    }\r\n\r\n    function AddPolicy(string policyName, string riskCovered,uint policyPremium, uint indemnityAmount,uint currentAmount) public returns(uint) {\r\n        policies.push(Policy(policyName,riskCovered,policyPremium,indemnityAmount,currentAmount));\r\n\r\n              \r\n    }\r\n}",
  "sourcePath": "C:\\Code\\IBISAPoC\\contracts\\Wallet.sol",
  "compiler": {
    "name": "solc",
    "version": "0.4.18+commit.9cf6e910.Emscripten.clang"
  },
  "schemaVersion": "1.0.1",
  "updatedAt": "2018-01-25T12:38:25.165Z"
}